:020000040000FA
:1000000000008A110A12BE2DF200030E8301F100D6
:100010000A088A01F000040883160313CC00831237
:1000200003130B11D830810083160313C901831207
:100030000313871F1E2883160313C90A831603138D
:100040004908CA0001304A06C900CA004A0C031810
:100050002C28831203138713031C312883120313E4
:1000600087178A110A124E208A110A128A110A125F
:10007000F2268A110A128A110A1281248A110A129E
:10008000831603134C0883120313840070088A003C
:100090008301710E8300F20E720E09000530831287
:1000A0000313CA070318CB0A4A08143A031D5B2836
:1000B0004B08003A031DCC2A83120313CA01CB015B
:1000C00083120313AC0183120313AD010A30FF0046
:1000D0002C088A110A1285278A110A128312031327
:1000E000AE00AF012E08363EAE00003003182F0FD1
:1000F000003EAF00831203132D082E07B0002F0817
:100100000318013EB1002D0AB2002E07B3002F08DC
:100110000318013EB40033088312031384008313D1
:1001200083120313341883178312031300088312F6
:100130000313B50030088312031384008313831262
:1001400003133118831735088312031380008312B9
:1001500003133208AD0004302D02031C7A282C084A
:10016000B0000319B8282C08013A0319D728F7283A
:10017000831203132D082E07B0002F080318013E29
:10018000B100013083120313060583120313B2007A
:10019000B300300883120313840083138312031304
:1001A000311883173308831203138000F728831252
:1001B00003132D082E07AD002F080318013EB000D1
:1001C000023083120313060583120313AE000310DB
:1001D0002E0CAF002D0883120313840083138312A7
:1001E0000313301883172F088312031380000A307B
:1001F000FF00831203132C088A110A1285278A1123
:100200000A1283120313AD00AE012D08363EAD0075
:10021000003003182E0F003EAE0005302D07AF0052
:10022000B001B00D2E08B0072F088312031384000D
:1002300083138312031330188317831203130008E8
:1002400083120313B100043031020318C52A0130B0
:10025000831203138A003530831203133107031C02
:100260003429831203138A0A82003929A629012A14
:100270006E2A0430831203132D07B100B201B20DB0
:100280002E08B207310883120313840083138312EC
:100290000313321883178312031300088312031306
:1002A000B3003308031DC52A03302D07B100B20186
:1002B000B20D2E08B2073108831203138400831392
:1002C0008312031332188317831203130008831257
:1002D0000313B3003308031DC52A01302D07B100F5
:1002E000B201B20D2E08B207310883120313840045
:1002F0008313831203133218831783120313000826
:1003000083120313B300013A031DC52A2D0883127B
:10031000031384008313831203132E18831783128D
:100320000313000883120313B100013A031DC52A09
:100330002F088312031384008313831203133018CE
:1003400083170130831203138000C52A04308312FF
:1003500003132D07B100B201B20D2E08B207310808
:100360008312031384008313831203133218831739
:1003700083120313000883120313B3003308031D11
:10038000C52A03302D07B100B201B20D2E08B20705
:10039000310883120313840083138312031332186A
:1003A000831783120313000883120313B300330867
:1003B000031DC52A02302D07B100B201B20D2E086F
:1003C000B2073108831203138400831383120313CB
:1003D0003218831783120313000883120313B30028
:1003E0003308031DC52A2F088312031384008313C7
:1003F0008312031330188317023083120313800013
:10040000C52A0430831203132D07B100B201B20DC7
:100410002E08B2073108831203138400831383125A
:100420000313321883178312031300088312031374
:10043000B300013A031DC52A03302D07B100B201F4
:10044000B20D2E08B2073108831203138400831300
:1004500083120313321883178312031300088312C5
:100460000313B300013A031DC52A01302D07B10063
:10047000B201B20D2E08B2073108831203138400B3
:100480008313831203133218831783120313000894
:1004900083120313B3003308031DC52A2D088312EA
:1004A000031384008313831203132E1883178312FC
:1004B0000313000883120313B1003108031DC52A7A
:1004C0002F0883120313840083138312031330183D
:1004D00083170330831203138000C52A043083126C
:1004E00003132D07B100B201B20D2E08B207310877
:1004F00083120313840083138312031332188317A8
:1005000083120313000883120313B300013A031D7F
:10051000C52A03302D07B100B201B20D2E08B20773
:1005200031088312031384008313831203133218D8
:10053000831783120313000883120313B300013AD5
:10054000031DC52A0230AD070318AE0A2D08831219
:10055000031384008313831203132E18831783124B
:100560000313000883120313B100013A031DC52AC7
:100570002F0883120313840083138312031330188C
:100580008317003083120313800083120313AC0A15
:1005900002302C02031C6328080083120313A800F6
:1005A0000A30FF0028088A110A1285278A110A12C8
:1005B00083120313A900AA012908363EA8000030BF
:1005C000AB00003003182A0FAB070530A80703184B
:1005D000AB0A2808831203138400831383120313C6
:1005E0002B18831783120313000883120313A90027
:1005F000080083160313060883120313A0002010BB
:1006000001302004831603138600060883120313A7
:10061000A000A0100230200483160313860083126A
:100620000313A0010A30FF008312031320088A116C
:100630000A1285278A110A1283120313A100A2014C
:100640002108363EA3000030A40000300318220F1A
:10065000A407A5018312031325082307A600240875
:100660000318013EA7002608831203138400831396
:10067000831203132718831701308312031380009A
:1006800083120313A50A05302502031C2A2B210817
:10069000363EA10022080318220F003EA2000530BA
:1006A000A1070318A20A21088312031384008313ED
:1006B0008312031322188317003083120313800060
:1006C00083120313A00A02302002031C122B08001D
:1006D00083120313DD007F08DE000030FF000030CE
:1006E0009E230030FF0001309E230030FF000230C7
:1006F0009E230030FF0003309E23831203135E0805
:10070000A03EDE0000300318013EDF005E088312C9
:10071000031384008313831203135F188317831258
:100720000313000888000130FF00831203135D08E3
:100730009E23080083160313CB00080083120313C3
:10074000D9007F08DA00043059020318012C033065
:10075000831203138A00B530831203135907031C55
:10076000B42B831203138A0A8200B92BC92BDC2B0A
:10077000F12B83120313060883120313D9005912B5
:100780005A0EF039DB00DC00590483120313860093
:10079000012C83120313060883120313D900D91204
:1007A0005A0EF039DB000310DB0D5B08DC00590446
:1007B000831203138600012C83120313060883128D
:1007C0000313D90059135A0EF039DB000310DB0D67
:1007D0000310DB0D5B08DC00590483120313860051
:1007E000012C83120313060883120313D900D913B3
:1007F0005A0CDB01DB0C5B08DA005904831203138B
:100800008600080083120313D700D8010430570272
:1008100003184D2C0430831203138A0018308312FE
:1008200003135707031C172C831203138A0A820031
:100830001C2C272C342C432C103083120313060558
:1008400083120313D700570E0F39D8004D2C2030D8
:1008500083120313060583120313D700570E0F39B3
:10086000D8000310D80C4D2C40308312031306051A
:1008700083120313D700570E0F39D8000310D80C7A
:100880000310D80C4D2C80308312031306058312FD
:100890000313D700570DD801D80D8312031358083E
:1008A000080083120313D4007F08D5005408C43E07
:1008B000D40000300318013ED600540883120313FD
:1008C0008400831383120313561883175508831269
:1008D00003138000080083120313D200C43ED20029
:1008E00000300318013ED300520883120313840022
:1008F00083138312031353188317831203130008FF
:100900000800053083120313E0070318E10A6008AA
:10091000053A031D8E2C6108003A031D432D8312F6
:100920000313E001E1018A110A12EC268A110A126E
:1009300083120313CE007F08CD000A30FD00003083
:10094000FE004D08FF004E088A110A12A9268A11DE
:100950000A1283120313D0007F08CF00D100831640
:100960000313C4000A30FD000030FE00831203139D
:100970004D08FF004E088A110A125A268A110A12DF
:1009800083120313D0007F08CF000A30FD0000302F
:10099000FE004F08FF0050088A110A12A9268A118A
:1009A0000A1283120313D0007F08CF00D1008316F0
:1009B0000313C5006430FD000030FE0083120313F2
:1009C0004D08FF004E088A110A125A268A110A128F
:1009D00083120313D0007F08CF000A30FD000030DF
:1009E000FE004F08FF0050088A110A12A9268A113A
:1009F0000A1283120313D0007F08CF00D1008316A0
:100A00000313C600E830FD000330FE008312031319
:100A10004D08FF004E088A110A125A268A110A123E
:100A200083120313CE007F08CD00CF00831603137B
:100A3000C700831203136E08C43E83120313CD0054
:100A400000300318013ECE004D08831203138400CA
:100A50008313831203134E188317831203130008A2
:100A600083120313CF00FF00831203136E08682361
:100A7000831203136E08033A031D402DEE01432D2C
:100A800083120313EE0A08008316031388010A3049
:100A9000FF00003068230A30FF00013068230A306D
:100AA000FF00023068230A30FF00033068238316FA
:100AB0000313060883120313CC00EF304C05831692
:100AC00003138600060883120313CC00DF304C05A5
:100AD000831603138600060883120313CC00BF306D
:100AE0004C05831603138600060883120313CC00FB
:100AF0007F304C058316031386000030FF00003062
:100B00008A110A129E238A110A120030FF00013056
:100B10008A110A129E238A110A120030FF00023045
:100B20008A110A129E238A110A120030FF00033034
:100B30008A110A129E238A110A120A30FF0000301D
:100B40008A110A1251248A110A120A30FF00013058
:100B50008A110A1251248A110A120A30FF00023047
:100B60008A110A1251248A110A120A30FF00033036
:100B70008A110A1251248A110A120800A630FE00B6
:100B80000730FF0080308A110A123F278A110A12AB
:100B900083120313E3007F08E200A830E40007306B
:100BA000E500831203136208E6006308E700FF30E4
:100BB000E207031CE303660867040319562E04309A
:100BC0006407E600E701E70D6508E7076608FE0031
:100BD0006708FF0080308A110A123F278A110A1223
:100BE00083120313E9007F08E8006408FE0065082B
:100BF000FF0080308A110A123F278A110A128312DD
:100C00000313EB00E7007F08EA00E6000230640708
:100C1000E600E701E70D6508E7076608FE006708DC
:100C2000FF0080308A110A123F278A110A128312AC
:100C30000313E700ED007F08E600EC0083120313C6
:100C40006808EC006908ED00FF30E807031CE903C1
:100C50006C086D0403194F2E6A08FE006B08FF0034
:100C600080308A110A122C278A110A128312031368
:100C7000EC006608831203138400831383120313AA
:100C8000671883176C088312031380008312031301
:100C9000EA0A0319EB0AE60A0319E70A1E2E0630D0
:100CA00083120313E4070318E50AD12D8A110A12EF
:100CB000C62F080083160313AC007F08AB007E0824
:100CC000AE007D08AD00AF01B0010130B100B2014E
:100CD0002D082E04031D702EFF30FF00FF30A82EBC
:100CE000831603132D082E08B300B31B7E2E0310AA
:100CF000AD0DAE0D0310B10DB20D702E83160313A2
:100D0000310832040319A32E2E082C02031D8A2E4B
:100D10002D082B02031C9A2E831603133108AF07EC
:100D200032080318320FB0072D08AB022E08031C3F
:100D30002E0FAC02031083160313AE0CAD0C031080
:100D4000B20CB10C7E2E831603132F08FF0030085F
:100D5000080083160313B5007F08B4007E08B700AF
:100D60007D08B6003704031DB92EFF30FF00FF30A9
:100D7000EB2E013083160313B800831603133608D5
:100D80003708B900B91BC92E0310B60DB70DB80A44
:100D9000BD2E00308316031338040319E62E3708DE
:100DA0003502031DD52E36083402031CDF2E8316B0
:100DB00003133608B4023708031C370FB5020310BB
:100DC00083160313B70CB60CB803C92E831603138E
:100DD0003408FF0035080800831603133B08FF00A2
:100DE0003C080800053083160313BD070318BE0A2C
:100DF0003D08143A031DFF2E3E08003A031D262F1E
:100E000083160313BD01BE0100308A110A12CD22E0
:100E10008A110A1283160313BA00013A031D162F12
:100E200083160313BB0A0319BC0A262F01308A114B
:100E30000A12CD228A110A1283160313BA00013A4C
:100E4000031D262F83160313BB01BC010800831664
:100E50000313BB01BC010800003A0319332F803A89
:100E600003193A2F00347E08840083137F188317F8
:100E7000000808007F088A007E0882000800003A07
:100E80000319472F803A0319512FFF0100347E08C0
:100E9000840083137F1883170008FF00840A00086A
:100EA00008008A110A123A27FD00FE0FFF03FF0A0D
:100EB0008A110A123A27FC007D08FF007C0808000E
:100EC000831603138116080083160313C8018312C7
:100ED00003130B1D6E2F83160313C80A8316031307
:100EE00048080800831203130B11D83081008B16B9
:100EF0008B17831603138112080083160313011541
:100F00008114011481118116080083160313BF0098
:100F10007F08C000C1010830C200831603133F1CC4
:100F2000932F4008C107831603133F08C300031023
:100F3000430CBF000310400DC300C0004203C300B8
:100F4000C2004308031D8D2F4108080005340034FA
:100F5000E1340734A03400340B340034F034073467
:100F60006E34003401340034EC340734C4340034BB
:100F700004340034F1340734CB3400340134003409
:100F8000F2340734CD340034013400348A110A12AB
:100F9000F9228A110A128A110A1227278A110A12C3
:100FA0008A110A1244258A110A128A110A127D270F
:100FB0008A110A128A110A1272278A110A12DF2F65
:100FC00008003F3406345B344F3466346D347D346E
:100FD00007347F346F3400340A3400340034003472
:060FE0000034003400346F
:02400E00323F3F
:00000001FF
